{
  "abi": [
    {
      "inputs": [],
      "stateMutability": "nonpayable",
      "type": "constructor"
    },
    {
      "stateMutability": "payable",
      "type": "fallback"
    },
    {
      "inputs": [],
      "name": "target",
      "outputs": [
        {
          "internalType": "address",
          "name": "",
          "type": "address"
        }
      ],
      "stateMutability": "view",
      "type": "function"
    }
  ],
  "bytecode": {
    "object": "0x608060405234801561001057600080fd5b50600080546001600160a01b03199081163317909155600180549091167306450dee7fd2fb8e39061434babcfc05599a6fb8179055610201806100546000396000f3fe60806040526004361061001e5760003560e01c8063d4b8399214610160575b6000546064906001600160a01b0316331461006d5760405162461bcd60e51b815260206004820152600a6024820152696f776e6572206f6e6c7960b01b60448201526064015b60405180910390fd5b600154604051602481018390526000916001600160a01b03169060440160408051601f198184030181529181526020820180516001600160e01b0316639ff054df60e01b179052516100bf919061019c565b6000604051808303816000865af19150503d80600081146100fc576040519150601f19603f3d011682016040523d82523d6000602084013e610101565b606091505b50509050806101525760405162461bcd60e51b815260206004820152601d60248201527f4d696e6778696e67205875206973207374696c6c206368656174696e670000006044820152606401610064565b6000546001600160a01b0316ff5b34801561016c57600080fd5b50600154610180906001600160a01b031681565b6040516001600160a01b03909116815260200160405180910390f35b6000825160005b818110156101bd57602081860181015185830152016101a3565b50600092019182525091905056fea26469706673582212209a0cd4c6fb485ef4eb1343bcd6a0768c05129124751396124ca0006928a087db64736f6c63430008110033",
    "linkReferences": {}
  },
  "methodIdentifiers": {
    "target()": "d4b83992"
  },
  "id": 17
}